:020000040000FA
:10000000805000206D020000810200008302000089
:10001000850200008502000085020000000000004B
:100020000000000000000000000000008502000049
:10003000850200000000000085020000850200002B
:100040008502000085020000850200008502000094
:100050008502000085020000850200008502000084
:100060008502000085020000850200008502000074
:100070008502000085020000850200008502000064
:100080008502000085020000850200008502000054
:100090008502000085020000850200008502000044
:1000A0008502000085020000850200008502000034
:1000B0008502000085020000850200008502000024
:1000C0008502000085020000850200008502000014
:1000D0008502000085020000850200008502000004
:1000E000850200008502000000000000850200007B
:1000F00085020000850200008502000085020000E4
:1001000085020000850200008502000085020000D3
:1001100000000000000000008502000085020000D1
:1001200085020000850200008502000085020000B3
:1001300085020000850200008502000085020000A3
:1001400000000000000000000000000000000000AF
:100150008502000085020000850200008502000083
:10016000000000000000000000000000000000008F
:10017000000000000000000000000000000000007F
:10018000000000000000000000000000000000006F
:10019000000000000000000000000000000000005F
:1001A000000000000000000000000000000000004F
:1001B0008502000085020000850200008502000023
:1001C0008502000085020000850200008502000013
:1001D0008502000085020000850200008502000003
:1001E000850200008502000085020000000000007A
:1001F000000000008502000085020000850200006A
:1002000085020000850200000000000000000000E0
:1002100085020000850200008502000085020000C2
:1002200085020000850200008502000085020000B2
:1002300085020000850200008502000085020000A2
:100240008502000085020000850200008502000092
:100250008502000085020000850200008502000082
:100260008502000085020000850200004EF68850DD
:10027000CEF20000016841F47001016000F004B8A2
:10028000FEE7FEE7FEE7000000F002F800F05CF891
:100290000AA090E8000C82448344AAF10107DA45E1
:1002A00001D100F051F8AFF2090EBAE80F0013F0D7
:1002B000010F18BFFB1A43F00103184730D10100AA
:1002C00050D101000A444FF0000C10F8013B13F02C
:1002D000070408BF10F8014B1D1108BF10F8015B9F
:1002E000641E05D010F8016B641E01F8016BF9D192
:1002F00013F0080F1EBF10F8014BAD1C0C1B09D1E9
:100300006D1E58BF01F801CBFAD505E014F8016B5A
:1003100001F8016B6D1EF9D59142D6D370470000EC
:100320000023002400250026103A28BF78C1FBD8FE
:10033000520728BF30C148BF0B6070471FB51AF085
:1003400058FA1FBD10B510BD00F049F91146FFF76E
:10035000F5FF17F0D3FD00F067F903B4FFF7F2FFE4
:1003600003BC00F06BF90000EFF3108072B6704729
:10037000EFF310807047EFF3108062B6704730BF24
:10038000704780F311887047EFF3118070470000C9
:100390000138FDD17047000002480349014A034B70
:1003A00070470000804E002080500020804E0020CA
:1003B00070B50446051F00F0F9F80068002C14BF62
:1003C000446870BD002C18BFAC423CBF2046646836
:1003D000F8D301680A18AA4218BF456003D12A68F9
:1003E00005461144016028684119A1421CBF6C6098
:1003F00070BD6168696021680844286070BD0000B4
:100400000649074A0868504343F23902104408601D
:10041000C0F30E407047014908607047080F002084
:100420006D4EC641032A40F2308010F0030C00F0FC
:10043000158011F8013BBCF1020F624498BF11F81E
:1004400001CB00F8013B38BF11F8013BA2F10402D7
:1004500098BF00F801CB38BF00F8013B11F003034F
:1004600000F02580083AC0F0088051F8043B083AB3
:1004700051F804CBA0E80810F5E7121D5CBF51F855
:10048000043B40F8043BAFF30080D20724BF11F8CF
:10049000013B11F801CB48BF11F8012B24BF00F834
:1004A000013B00F801CB48BF00F8012B704710B5A5
:1004B000203AC0F00B80B1E81850203AA0E818505C
:1004C000B1E81850A0E81850BFF4F5AF5FEA027C1D
:1004D00024BFB1E81850A0E8185044BF18C918C08C
:1004E000BDE810405FEA827C24BF51F8043B40F82D
:1004F000043B08BF7047D20728BF31F8023B48BF12
:1005000011F8012B28BF20F8023B48BF00F8012B4F
:1005100070474FF000020429C0F0128010F0030C65
:1005200000F01B80CCF1040CBCF1020F18BF00F8E6
:10053000012BA8BF20F8022BA1EB0C0100F00DB895
:100540005FEAC17C24BF00F8012B00F8012B48BFF3
:1005500000F8012B70474FF0000200B51346944697
:100560009646203922BFA0E80C50A0E80C50B1F10B
:100570002001BFF4F7AF090728BFA0E80C5048BF1F
:100580000CC05DF804EB890028BF40F8042B08BFBD
:10059000704748BF20F8022B11F0804F18BF00F8B9
:1005A000012B704770477047704700000048704744
:1005B000244E002010B500F00DF8006810BD10B5F5
:1005C000044600F007F8046010BD000000487047C2
:1005D0001C4E0020004870471C4E00207047754696
:1005E000FFF7F4FFAE4605006946534620F00700CA
:1005F000854618B020B5FFF7CFFEBDE820404FF08C
:1006000000064FF000074FF000084FF0000B21F0FC
:100610000701AC46ACE8C009ACE8C009ACE8C009C9
:10062000ACE8C0098D46704710B50446AFF30080B2
:100630002046BDE81040FFF790BE00000149182099
:10064000ABBEFEE72600020001228A40C26070476E
:1006500030B5034632B1DC684FF001158D4004EA35
:1006600005000FE05C6801258D4045F4803504EA03
:10067000050000F480342CB140F470204FF4803435
:100680008C40A04330BD10B50A0C120401F00F04D9
:100690000123A3401A43836A1A43826210BD30B516
:1006A000890044690F258D40AC4302F00F058D4051
:1006B0002C434461056A0F248C4025EA040403F0AE
:1006C00003058D402C43046230BD10B503464C0138
:1006D00040342344002002E09C6810C2401CDC68C7
:1006E00004F480740CB90828F6D310BD0268012305
:1006F0008B401A430260704770B50C466501403567
:100700002844920005680F269640B54303F00F0673
:1007100096403543056086690F25954026EA050514
:10072000C3F3032696403543856146680F259540FF
:1007300026EA0505C3F3031696403543456003F4E6
:10074000702575B141690F259540A943C3F3024552
:100750009540294341610669012595402E43066174
:1007600004E0066901259540AE43066170BD0000B6
:1007700010B5104811F084FB00BF0E4811F09AFB31
:100780000028FAD00C4811F07BFB08210B4805F03B
:1007900021FD00231A4619460948FFF780FF602310
:1007A000002211460648FFF7A7FF00210448FFF783
:1007B0009DFF10BD003800F0040800F0004002402A
:1007C0000080034003B589B0002007900690069092
:1007D0000AE006990998415C07980844C0B207905E
:1007E0000698401CC0B206900A98401E069988429E
:1007F000EFDCDDE90901084410F8011C079881428B
:1008000001D00BB000BD09980078AA2803D109983F
:100810004078AF2800D0F4E709988078012800D10B
:1008200000BF0998807802286BD1099800790128C7
:1008300033D1FE49087048708870C87008714871DB
:1008400000200221FA4A0346B6EE000ACDE9002153
:10085000029032224FF47A71F64802F0EEF900204D
:100860000421F34A0346B6EE000ACDE900210290C6
:1008700032224FF47A71F04802F0DFF900200821AB
:10088000EB4A0346B6EE000ACDE90021029032227F
:100890004FF47A71E94802F0D0F909980079A1285B
:1008A0002FD10320E649087000200221E04A0346C8
:1008B000B6EE000ACDE90021029032224FF47A719F
:1008C000DC4802F0BAF900200421D94A0346B6EE0A
:1008D000000ACDE90021029032224FF47A71D64805
:1008E00002F0ABF900200821D14A0346B6EE000A17
:1008F000CDE90021029032224FF47A71CF4802F004
:100900009CF90998807810287DD109980079000217
:1009100000B2099949790843019019F09CFB9FEDB9
:10092000C90B53EC102BCDE902019DED020B51ECEC
:10093000100B19F0F7FBCDE904019DED040B51EC10
:10094000100B19F0E5F8C149C1F81C02099880792B
:10095000000200B20999C9790843019019F07BFBA4
:100960009FEDB80B53EC102BCDE902019DED020B6E
:1009700051EC100B19F0D6FBCDE904019DED040BF1
:1009800051EC100B19F0C4F8B049C1F820020998D5
:10099000007A000200B20999497A0843019019F0DF
:1009A0005AFB9FEDAB0B53EC102BCDE902019DEDF3
:1009B000020B51EC100B19F0B5FBCDE904019DEDD4
:1009C000040B51EC100B19F0A3F8A049C1F8240254
:1009D0000998807A000200B20999C97A0843019007
:1009E00019F039FB9FED970B53EC102BCDE9020169
:1009F0009DED020B51EC100B19F094FBCDE90401B5
:100A00009DED040B00E0B1E051EC100B19F080F803
:100A10008E49C1F8CC000998007B000200B2099908
:100A2000497B0843019019F016FB9FED860B53ECB0
:100A3000102BCDE902019DED020B51EC100B19F0CA
:100A400071FBCDE904019DED040B51EC100B19F085
:100A50005FF87E49C1F8D0000998807B000200B29F
:100A60000999C97B0843019019F0F5FA9FED780BBD
:100A700053EC102BCDE902019DED020B51EC100B54
:100A800019F050FBCDE904019DED040B51EC100B66
:100A900019F03EF86D49C1F8D4000998007C0002B5
:100AA00000B20999497C0843019019F0D4FA9FEDEE
:100AB000650B53EC102BCDE902019DED020B51ECBF
:100AC000100B19F02FFBCDE904019DED040B51EC47
:100AD000100B19F01DF85D49C1F86C030998807C72
:100AE000000200B20999C97C0843019019F0B3FAD9
:100AF0009FED540B53EC102BCDE902019DED020B41
:100B000051EC100B19F00EFBCDE904019DED040B27
:100B100051EC100B18F0FCFF4C49C1F87003099818
:100B2000007D000200B20999497D0843019019F047
:100B300092FA9FED470B53EC102BCDE902019DED8E
:100B4000020B51EC100B19F0EDFACDE904019DED0B
:100B5000040B51EC100B18F0DBFF3C49C1F8740397
:100B6000099880780590079900F0EAFD0998807847
:100B700011285AD109980079000200B209994979DF
:100B80000843019019F067FA9FED2E0B53EC102BE0
:100B9000CDE902019DED020B51EC100B19F0C2FAE8
:100BA000CDE904019DED040B51EC100B18F0B0FFE2
:100BB0002649C1F8740109988079000200B20999A8
:100BC000C9790843019019F046FA9FED1E0B53ECCA
:100BD000102BCDE902019DED020B51EC100B19F029
:100BE000A1FACDE904019DED040B51EC100B18F0B6
:100BF0008FFF1649C1F878010998007A000200B207
:100C00000999497A0843019019F025FA9FED100BD4
:100C100053EC102BCDE902019DED020B51EC100BB2
:100C200019F080FACDE9040116E0E7E07206002031
:100C3000005002409C140020B0140020C414002076
:100C4000CF040020FCA9F1D24D62503FD81B0020F8
:100C50007B14AE47E17A843F9DED040B51EC100B01
:100C600018F056FFFE49C1F87C010998807A00020D
:100C700000B20999C97A0843019019F0ECF91FED07
:100C80000F0B53EC102BCDE902019DED020B51EC43
:100C9000100B19F047FACDE904019DED040B51EC5E
:100CA000100B18F035FFEE4948620998007B0002EE
:100CB00000B20999497B0843019019F0CCF91FED66
:100CC0001F0B53EC102BCDE902019DED020B51ECF3
:100CD000100B19F027FACDE904019DED040B51EC3E
:100CE000100B18F015FFDE4988620998807B00021E
:100CF00000B20999C97B0843019019F0ACF91FEDC6
:100D00002C0B53EC102BCDE902019DED020B51ECA5
:100D1000100B19F007FACDE904019DED040B51EC1D
:100D2000100B18F0F5FECE49C8620998007C00024D
:100D300000B20999497C0843019019F08CF91FED24
:100D40003F0B53EC102BCDE902019DED020B51EC52
:100D5000100B19F0E7F9CDE904019DED040B51ECFE
:100D6000100B18F0D5FEBE49C1F8C4020998807C6A
:100D7000000200B20999C97C0843019019F06BF98F
:100D80001FED500B53EC102BCDE902019DED020B32
:100D900051EC100B19F0C6F9CDE904019DED040BDF
:100DA00051EC100B18F0B4FEAD49C1F8C802099817
:100DB000007D000200B20999497D0843019019F0B5
:100DC0004AF91FED5D0B53EC102BCDE902019DEDAF
:100DD000020B51EC100B19F0A5F9CDE904019DEDC2
:100DE000040B51EC100B18F093FE9D49C1F8CC0296
:100DF000099880780590079900F0A2FC09988078FE
:100E000012287DD109980079000200B20999497928
:100E10000843019019F01FF91FED760B53EC102BCE
:100E2000CDE902019DED020B51EC100B19F07AF99E
:100E3000CDE904019DED040B51EC100B18F068FE98
:100E40008749C1F8BC0409988079000200B2099969
:100E5000C9790843019019F0FEF81FED860B53EC99
:100E6000102BCDE902019DED020B51EC100B19F096
:100E700059F9CDE904019DED040B51EC100B18F06C
:100E800047FE7749C1F8C0040998007A000200B211
:100E90000999497A0843019019F0DDF81FED940B88
:100EA00053EC102BCDE902019DED020B51EC100B20
:100EB00019F038F9CDE904019DED040B51EC100B4C
:100EC00018F026FE6649C1F8C4040998807A000229
:100ED00000B20999C97A0843019019F0BCF81FEDD6
:100EE000A70B53EC102BCDE902019DED020B51EC49
:100EF000100B19F017F9CDE904019DED040B00E08A
:100F0000CCE051EC100B18F003FE5549C1F8140465
:100F10000998007B000200B20999497B08430190BF
:100F200019F099F81FEDB90B53EC102BCDE9020124
:100F30009DED020B51EC100B19F0F4F8CDE9040112
:100F40009DED040B51EC100B18F0E2FD4449C1F883
:100F500018040998807B000200B20999C97B0843F4
:100F6000019019F078F81FEDC60B53EC102BCDE96A
:100F700002019DED020B51EC100B19F0D3F8CDE9F5
:100F800004019DED040B51EC100B18F0C1FD344928
:100F9000C1F81C040998007C000200B20999497C40
:100FA0000843019019F057F81FEDDA0B53EC102BA2
:100FB000CDE902019DED020B51EC100B19F0B2F8D6
:100FC000CDE904019DED040B51EC100B18F0A0FDD0
:100FD0002349C1F85C070998807C000200B2099996
:100FE000C97C0843019019F036F81FEDEA0B53EC69
:100FF000102BCDE902019DED020B51EC100B19F005
:1010000091F8CDE904019DED040B51EC100B18F0A3
:101010007FFD1349C1F860070998007D000200B206
:101020000999497D0843019019F015F81FEDF80B57
:1010300053EC102BCDE902019DED020B51EC100B8E
:1010400019F070F8CDE904019DED040B51EC100B83
:1010500018F05EFD0249C1F8640701F5E76001E0A0
:10106000D81B002090ED090AA0F5A87080ED090AB0
:1010700000F5A87090ED0A0AA0F5A87080ED0A0AA4
:1010800000F5A87090ED0B0AA0F5A87080ED0B0A92
:10109000099880780590079900F052FB09988078AC
:1010A00013287DD109980079000200B20999497985
:1010B0000843019018F0CFFF9FEDFE0B53EC102B6F
:1010C000CDE902019DED020B51EC100B19F02AF84D
:1010D000CDE904019DED040B51EC100B18F018FD47
:1010E000F649C1F8B40609988079000200B209995E
:1010F000C9790843019018F0AEFF9FEDEE0B53EC59
:10110000102BCDE902019DED020B51EC100B19F0F3
:1011100009F8CDE904019DED040B51EC100B18F01A
:10112000F7FCE649C1F8B8060998007A000200B257
:101130000999497A0843019018F08DFF9FEDE00B63
:1011400053EC102BCDE902019DED020B51EC100B7D
:1011500018F0E8FFCDE904019DED040B51EC100BF4
:1011600018F0D6FCD549C1F8BC060998807A00026F
:1011700000B20999C97A0843019018F06CFF9FEDFD
:10118000CD0B53EC102BCDE902019DED020B51EC80
:10119000100B18F0C7FFCDE904019DED040B00E032
:1011A00066E051EC100B18F0B3FCC449C1F8040818
:1011B0000998007B000200B20999497B084301901D
:1011C00018F049FF9FEDBB0B53EC102BCDE902014A
:1011D0009DED020B51EC100B18F0A4FFCDE90401BA
:1011E0009DED040B51EC100B18F092FCB349C1F8C3
:1011F00008080998807B000200B20999C97B08435E
:10120000019018F028FF9FEDAE0B53EC102BCDE9A9
:1012100002019DED020B51EC100B18F083FFCDE99C
:1012200004019DED040B51EC100B18F071FCA34967
:10123000C1F80C0801F5D26090ED090AA0F5A8707C
:1012400080ED090A00F5A87090ED0A0AA0F5A870D3
:1012500080ED0A0A00F5A87090ED0B0AA0F5A870C1
:1012600080ED0B0A099880780590079900F068FADC
:101270000998807814287DD109980079000200B27D
:10128000099949790843019018F0E5FE9FED890B13
:1012900053EC102BCDE902019DED020B51EC100B2C
:1012A00018F040FFCDE904019DED040B51EC100B4B
:1012B00018F02EFC8149C1F8FC09099880790002D8
:1012C00000B20999C9790843019018F0C4FE9FED56
:1012D000790B53EC102BCDE902019DED020B51EC83
:1012E000100B18F01FFFCDE904019DED040B51EC2C
:1012F000100B18F00DFC7149C1F8000A0998007A2A
:10130000000200B20999497A0843019018F0A3FE3F
:101310009FED6B0B53EC102BCDE902019DED020B01
:1013200051EC100B18F0FEFECDE904019DED040B0D
:1013300051EC100B18F0ECFB6049C1F8040A099855
:10134000807A000200B20999C97A0843019018F026
:1013500082FE9FED580B53EC102BCDE902019DED61
:10136000020B51EC100B18F0DDFECDE904019DEDF0
:10137000040B00E020E151EC100B18F0C9FB4F49C1
:10138000C1F8A40A0998007B000200B20999497BC0
:101390000843019018F05FFE9FED460B53EC102BB5
:1013A000CDE902019DED020B51EC100B18F0BAFED5
:1013B000CDE904019DED040B51EC100B18F0A8FBD6
:1013C0003E49C1F8A80A0998807B000200B2099939
:1013D000C97B0843019018F03EFE9FED390B53EC9A
:1013E000102BCDE902019DED020B51EC100B18F012
:1013F00099FECDE904019DED040B51EC100B18F0A2
:1014000087FB2E49C1F8AC0A0998007C000200B2A3
:101410000999497C0843019018F01DFE9FED250BAA
:1014200053EC102BCDE902019DED020B51EC100B9A
:1014300018F078FECDE904019DED040B51EC100B82
:1014400018F066FB1D49C1F84C0B0998807C00021E
:1014500000B20999C97C0843019018F0FCFD9FED8A
:10146000150B53EC102BCDE902019DED020B51EC55
:10147000100B18F057FECDE904019DED040B51EC63
:10148000100B18F045FB0D49C1F8500B0998007D71
:10149000000200B20999497D0843019018F0DBFD74
:1014A0009FED070B53EC102BCDE902019DED020BD4
:1014B0000AE00000FCA9F1D24D62503FD81B002089
:1014C0007B14AE47E17A843F51EC100B18F02AFEF2
:1014D000CDE904019DED040B51EC100B18F018FB45
:1014E0005649C1F8540B0998007C000200B20999D2
:1014F000497C0843019018F0AEFD1FED120B53EC30
:10150000102BCDE902019DED020B51EC100B18F0F0
:1015100009FECDE904019DED040B51EC100B18F010
:10152000F7FA4649C1F8F40B0998807C000200B232
:101530000999C97C0843019018F08DFD1FED230B1C
:1015400053EC102BCDE902019DED020B51EC100B79
:1015500018F0E8FDCDE904019DED040B51EC100BF2
:1015600018F0D6FA3549C1F8F80B0998007D000249
:1015700000B20999497D0843019018F06CFD1FEDF8
:10158000300B53EC102BCDE902019DED020B51EC19
:10159000100B18F0C7FDCDE904019DED040B51ECD3
:1015A000100B18F0B5FA2549C1F8FC0B09988078A2
:1015B0000590079900F0C4F80998807815283AD169
:1015C000099880780590079900F0BAF81C480078CF
:1015D000401C1B49087001201A4908700020022194
:1015E000194A0346B6EE000ACDE9002102903222E4
:1015F0004FF47A71154801F020FB00200421124AB3
:101600000346B6EE000ACDE90021029032224FF4E3
:101610007A710F4801F011FB002008210A4A0346A5
:10162000B6EE000ACDE90021029032224FF47A7121
:10163000084801F002FB00BFFFF7E3B8D81B002009
:10164000CE040020CF040020005002409C14002053
:10165000B0140020C414002010B5044634480078AB
:1016600038B9AA2C05D101203149087031480470DD
:101670005DE02F480078012807D1AF2C05D102206A
:101680002B4908702B48447051E029480078022803
:1016900007D1F12C05DA032025490870254884700C
:1016A00045E02348007803280CD1322C0ADA0420C4
:1016B0001F4908701F48C4701F48047000201F494C
:1016C000087034E01A480078042819D11A480078C4
:1016D000002815DD18480078401E17490870174883
:1016E000007816490978491C144A1170001D1149E7
:1016F0000C5411480078D0B905200D49087016E047
:101700000B48007805280FD10020094908700B48C4
:101710000078001D07490C5408480078401DC1B2EC
:101720000448FFF74FF802E000200149087010BD9F
:101730007A0600206E3F00207806002079060020FF
:101740002DE9F04105460E4600270024AA200D4948
:1017500008704870EF2088700220C8700846057134
:10176000467100BF05E00748005D3844C7B2601C01
:10177000C4B2062CF7DB03488771072111F052FC35
:10178000BDE8F0813C3F00202DE9FF4106460F46B1
:101790004FF0000800240025AA222146641C384886
:1017A00042542146641C425404222146641C425483
:1017B00000222146641C42542146641C46542146A2
:1017C000641C47549DF80B202146641C42549DF82C
:1017D0000A202046611CCCB229490A549DF80920F0
:1017E0002046611CCCB226490A549DF808202046A8
:1017F000611CCCB222490A549DF80F202046611C7E
:10180000CCB21F490A549DF80E202046611CCCB270
:101810001B490A549DF80D202046611CCCB2184982
:101820000A549DF80C202146601CC4B2144842544E
:101830009DF829202046611CCCB211490A549DF81C
:1018400028202046611CCCB20D490A54201FC870C4
:1018500000BF00BF06E00A48405D404400F0FF08BA
:10186000681CC5B2A542F6DB2046611CCCB2044917
:1018700001F800802146024811F0D4FBBDE8FF8149
:101880003C3F0020F0B52DED0A8B81B00646B0EE4E
:10189000408AF0EE608AB0EE419AF0EE619AB0EEC6
:1018A00042AAF0EE62AAB0EE43BAF0EE63BAB0EE2E
:1018B00044CA002400270025AA222146641C7E4831
:1018C00042542146641C425406F10F00C2B2214624
:1018D000641C7948425400222146641C42549FED06
:1018E000770A28EE000ABDEEC00A10EE100A00B218
:1018F00000909DF801202146641C6F4842549DF8D9
:1019000000202146641C42549FED6C0A28EE800A98
:10191000BDEEC00A10EE100A00B200909DF8012042
:101920002146641C644842549DF800202046611CF6
:10193000CCB261490A549FED620A29EE000ABDEE5D
:10194000C00A10EE100A00B200909DF80120204657
:10195000611CCCB258490A549DF800202046611CF5
:10196000CCB255490A549FED550A29EE800ABDEEC6
:10197000C00A10EE100A00B200909DF80120204627
:10198000611CCCB24C490A549DF800202046611CD1
:10199000CCB249490A549FED490A2AEE000ABDEE2D
:1019A000C00A10EE100A00B200909DF801202046F7
:1019B000611CCCB240490A549DF800202046611CAD
:1019C000CCB23D490A549FED3E0A2AEE800ABDEE94
:1019D000C00A10EE100A00B200909DF801202046C7
:1019E000611CCCB234490A549DF800202046611C89
:1019F000CCB231490A549FED310A2BEE000ABDEEFC
:101A0000C00A10EE100A00B200909DF80120204696
:101A1000611CCCB228490A549DF800202046611C64
:101A2000CCB225490A549FED250A2BEE800ABDEE63
:101A3000C00A10EE100A00B200909DF80120204666
:101A4000611CCCB21C490A549DF800202046611C40
:101A5000CCB219490A549FED1A0A2CEE000ABDEEC9
:101A6000C00A10EE100A00B200909DF80120204636
:101A7000611CCCB210490A549DF800202046611C1C
:101A8000CCB20D490A54201FC87000BF05E00A48B7
:101A9000405D3844C7B2681CC5B2A542F7DB20469A
:101AA000611CCCB204490F542146034811F0BAFA24
:101AB00001B0BDEC0A8BF0BD3C3F002000007A4431
:101AC0000000C8427FB5002400250026AA22214636
:101AD000641C554842542146641C4254032221464A
:101AE000641C425400222146641C42549DF801208B
:101AF0002146641C42549DF800202146641C425437
:101B00009DF805202146641C42549DF8042020467F
:101B1000611CCCB244490A549DF809202046611C3E
:101B2000CCB241490A549DF808202046611CCCB231
:101B30003D490A549DF80D202046611CCCB23A491B
:101B40000A549DF80C202046611CCCB236490A5438
:101B50009DF821202046611CCCB233490A549DF8DF
:101B600020202146601CC4B22F4842549DF82520F5
:101B70002046611CCCB22C490A549DF824202046F2
:101B8000611CCCB228490A549DF829202046611CCA
:101B9000CCB225490A549DF828202046611CCCB2BD
:101BA00021490A549DF82D202046611CCCB21E49C3
:101BB0000A549DF82C202046611CCCB21A490A54C4
:101BC0009DF831202046611CCCB217490A549DF87B
:101BD00030202046611CCCB213490A549DF83520B0
:101BE0002046611CCCB210490A549DF8342020468E
:101BF000611CCCB20C490A54201FC87000BF00BF42
:101C000005E00948405D3044C6B2681CC5B2A54233
:101C1000F7DB2046611CCCB203490E542146024832
:101C200011F000FA7FBD00003C3F00202DE9F84F85
:101C300006460F4690469946DDF828B00024A24695
:101C40000025AA222146641C574842542146641CA0
:101C5000425402222146641C425400222146641C44
:101C6000425400969DF801202146641C42549DF880
:101C700000202146641C425400979DF80120214613
:101C8000641C42549DF800202046611CCCB2464999
:101C90000A54CDF800809DF801202046611CCCB28A
:101CA00041490A549DF800202046611CCCB23E49AF
:101CB0000A54CDF800909DF801202046611CCCB25A
:101CC00039490A549DF800202046611CCCB236499F
:101CD0000A54CDF800B09DF801202046611CCCB21A
:101CE00031490A549DF800202046611CCCB22E498F
:101CF0000A540B9800909DF801202046611CCCB23C
:101D000029490A549DF800202046611CCCB226497E
:101D10000A540C9800909DF801202046611CCCB21A
:101D200021490A549DF800202046611CCCB21E496E
:101D30000A540D9800909DF801202046611CCCB2F9
:101D400019490A549DF800202046611CCCB216495E
:101D50000A540E9800909DF801202046611CCCB2D8
:101D600011490A549DF800202046611CCCB20E494E
:101D70000A54201FC87000BF00BF06E00A48405D3B
:101D8000504400F0FF0A681CC5B2A542F6DB2046AD
:101D9000611CCCB2044901F800A02146024811F0B0
:101DA00041F9BDE8F88F00003C3F00207CB50024DD
:101DB0000026AA222146641C534842542146641C32
:101DC000425401222146641C425400222146641CD4
:101DD00042544E4890ED000ADFED4D0A20EE200AF5
:101DE000BDEEC00A10EE100A00B201909DF8052069
:101DF0002146641C444842549DF804202146641C3A
:101E00004254444890ED000ADFED410A20EE200ADA
:101E1000BDEEC00A10EE100A00B201909DF8052038
:101E20002146641C384842549DF804202046611C19
:101E3000CCB235490A54384890ED000AB1EE400A58
:101E4000DFED330A20EE200ABDEEC00A10EE100AC4
:101E500000B201909DF805202046611CCCB22A49B1
:101E60000A549DF804202046611CCCB226490A542D
:101E70002A4890ED000ADFED260A20EE200ABDEE8A
:101E8000C00A8DED000A9DF803202046611CCCB2EB
:101E90001D490A549DF802202046611CCCB21A4903
:101EA0000A549DF801202046611CCCB216490A5400
:101EB0009DF800202046611CCCB213490A5401222F
:101EC0002046611CCCB210490A54154802782046BD
:101ED000611CCCB20C490A54201FC87000BF0025F9
:101EE00005E00948405D3044C6B2681CC5B2A54251
:101EF000F7DB2046611CCCB203490E542146024850
:101F000011F090F87CBD00003C3F0020080D00203F
:101F10000000C842040D0020A80D0020602A002007
:101F2000FA04002010B586B0ED480088401C00B2CD
:101F3000EB49088008460088012802D1FFF736FFE8
:101F4000CBE1E748008802284FD1E64890ED080A27
:101F5000BDEEC00A10EE100A02B2E24890ED070A88
:101F6000BDEEC00A10EE100A00B2DE4991ED060A7D
:101F7000BDEEC00A10EE101A09B2DA4B93ED020A58
:101F8000BDEEC00A10EE103A1BB2CDE90131CDE929
:101F90000302D44890ED010ABDEEC00A10EE100A0B
:101FA00000B2D04C009094ED000ABDEEC00A10EED5
:101FB000104A23B2CB4C94ED050ABDEEC00A10EED8
:101FC000104A22B2C74C94ED040ABDEEC00A10EECE
:101FD000104A21B2C34C94ED030ABDEEC00A10EEC4
:101FE000104A20B2FFF722FE77E1BD48008803289F
:101FF00016D10022BC48C089BB498989CDE90302BA
:10200000B948059202914089B7490989B64CCDE992
:10201000001063882288E188A088FFF753FD5CE107
:10202000AF480088042820D1B0480078E8B9AF480C
:102030004078D0B9AD488078B8B9AC48C078A0B97C
:10204000AA48007988B9A948407970B90A20009057
:10205000A7480178A7480368A74802680120FFF74E
:1020600093FB00209E49088037E19D4800880428A2
:102070000BD10A2000909E4801789E4803689E4834
:1020800002680120FFF780FB27E1954800880528BA
:102090002FD19648007801282BD19848D0EDDD4A01
:1020A000B0EE644AD0EDDC4AF0EE643AD0EDDB4AA3
:1020B000B0EE643AD0ED354AF0EE642AD0ED344A01
:1020C000B0EE642AD0ED334AF0EE641AD0ED894ABE
:1020D000B0EE641AD0ED884AF0EE640AD0ED874A7B
:1020E000B0EE640A0120FFF7CDFB00207F490870A5
:1020F000F3E07B48008806282FD17C4840780128EF
:102100002BD17E48D0EDB34AB0EE644AD0EDB24A4E
:10211000F0EE643AD0EDB14AB0EE643AD0ED0B4A3D
:10212000F0EE642AD0ED0A4AB0EE642AD0ED094AF6
:10213000F0EE641AD0ED5F4AB0EE641AD0ED5E4A5C
:10214000F0EE640AD0ED5D4AB0EE640A0220FFF7BB
:1021500099FB002065494870BFE061480088072866
:1021600032D16248807801282ED16548D0ED0B4AE3
:10217000B0EE644AD0ED0A4AF0EE643AD0ED094A76
:10218000B0EE643AA0F55270D0ED0B4AF0EE642A3E
:10219000D0ED0A4AB0EE642AD0ED094AF0EE641A96
:1021A000A830D0ED0B4AB0EE641AD0ED0A4AF0EE3A
:1021B000640AD0ED094AB0EE640A0320FFF762FB1F
:1021C00000204A49887088E04548008808282CD1BA
:1021D0004648C078012828D14948A83090ED0B3AEC
:1021E000F0EE432A90ED0A3AB0EE432A90ED093A18
:1021F000F0EE431AA0F5A87090ED0B3AB0EE431A3A
:1022000090ED0A3AF0EE430A90ED093AB0EE430A37
:102210009FED3C4ADFED3B3A9FED3A3A0420FFF751
:1022200031FB00203149C87057E02D48008809284B
:1022300031D12E48007901282DD13348D0ED0B4AF9
:10224000B0EE644AD0ED0A4AF0EE643AD0ED094AA5
:10225000B0EE643AA838D0ED0B4AF0EE642AD0ED27
:102260000A4AB0EE642AD0ED094AF0EE641AA838A2
:10227000D0ED0B4AB0EE641AD0ED0A4AF0EE640AD3
:10228000D0ED094AB0EE640A0520FFF7FBFA002002
:102290001649087121E0124800880A281DD1134808
:1022A0004079012819D19FED174ADFED163A9FEDCD
:1022B000153ADFED142A9FED132ADFED121A9FED78
:1022C000111ADFED100A9FED0F0A0620FFF7DAFA68
:1022D0000020064948710249088006B010BD000080
:1022E0007C060020643800203C4800207206002054
:1022F00004040020C4030020C0030020D81B0020D9
:1023000010230020000000000027002030B587B017
:10231000002400200490059006909A480078052833
:1023200073DC002039E0984991ED000AF3EE040ACD
:10233000B4EEE00AF1EE10FA2AD8944991F854105C
:10234000012925D100241BE09049483101EB84018B
:1023500091ED000ADFED8E0A60EE200A9FED8D1AE6
:1023600080EE810A04A901EB8401D1ED000A30EE70
:10237000200A04A901EB840181ED000A611C8CB2E2
:10238000032CE1DB411C88B20021804A82F8541002
:102390000121814A7B4B1B78D154B0F57A7FC2DB97
:1023A000DDED040A00EE100AB8EE400A80EE801A55
:1023B0007449097801EB4101784A02EB810181ED12
:1023C000001ADDED050A00EE100AB8EE400A80EEB4
:1023D000801A6C49097801EB410102EB810181ED22
:1023E000011ADDED060A00EE100AB8EE400A80EE92
:1023F000801A6449097801EB410102EB810181ED0A
:10240000021A06215F4A117000BF634800786249D2
:10241000497808406049897808405F49C978084090
:102420005D49097908405C4949790840002871D024
:102430005B48007800286DD10120594908700020C0
:1024400058490870584A5949544800F077FE58498D
:102450000870002504E000204F494855681C85B2EB
:10246000062DF8DB52480078012854D14F48D0EDB2
:10247000021AB0EE611AD0ED011AF0EE610AD0ED49
:10248000001AB0EE610A4B49022011F01EF94648CD
:10249000D0ED021AB0EE611AD0ED011AF0EE610A29
:1024A000D0ED001AB0EE610A4249052011F00DF995
:1024B0000AF04EFD00204049088002213F4A0346B1
:1024C0009FED3F0ACDE900210290642240F6B83129
:1024D0003C4800F0B2FB00200421384A0346B6EE27
:1024E000000ACDE900210290642240F6B831364856
:1024F00000F0A3FB00200821304A03469FED330A79
:10250000CDE900210290642240F6B831304800F055
:1025100094FB32E034E00020274908800221274A5A
:1025200003469FED270ACDE900210290C82241F21F
:102530008831244800F081FB002004211F4A034613
:10254000B6EE000ACDE900210290C82241F288319E
:102550001D4800F072FB00200821184A03469FED39
:102560001B0ACDE900210290C82241F288311848A7
:1025700000F063FB002017490880012007B030BD40
:102580000020FBE7E10000202C0D00206438002033
:102590000AE81C4100000045E30000209C120020D6
:1025A000E9000020E2000020D40000207812002082
:1025B000E0000020E03F00205201002000500240D7
:1025C0009A99993E9C140020B0140020CDCC4C3F29
:1025D000C41400207604002010B52DED028B84B0C9
:1025E0000024F8480088B0F57A7F2ED1F648B0F97B
:1025F000000017F030FD41EC180B9FEDF40B53EC8D
:10260000102B17F08DFE20D8F248B0F9000017F01B
:1026100022FD41EC180B9FEDF00B53EC102B17F043
:1026200045FD12D8EE48B0F9000017F014FD41EC5A
:10263000180B9FEDEC0B53EC102B17F071FE04D828
:10264000EA480088401CE9490880DE480088B0F567
:102650007A7F71D1DC48B0F9000017F0FCFC41EC46
:10266000180B9FEDDA0B53EC102B17F059FE63D8C3
:10267000D848B0F9000017F0EEFC41EC180B9FEDC4
:10268000D60B53EC102B17F011FD55D8D448B0F9E8
:10269000000017F0E0FC41EC180B9FEDD20B53EC5F
:1026A000102B17F03DFE74D8D0480088B0F5167F87
:1026B0006FDBCF48008800286BD10120CD4908800E
:1026C000CD4908700020CD49087001200221CC4A74
:1026D0000023B6EE000ACDE90021029064224FF4F7
:1026E0007A71C84800F0A9FA01200421C44A0023E5
:1026F000B6EE000ACDE90021029064224FF47A710F
:10270000C14800F09AFA01200821BD4A0023B6EE24
:10271000000ACDE90021029064224FF47A71BB488F
:1027200000F08BFA0620BA4908700020B9490870F9
:10273000AE49088000241EE02BE00020B649085571
:102740009FEDB60A04EB4400B54901EB800080ED33
:10275000000A9FEDB20A04EB440001EB800080ED1B
:10276000010A9FEDAE0A04EB440001EB800080ED0E
:10277000020A601C84B2062CDFDB0A20A94908800B
:1027800001200DF0A7FF01200DF0CCFF0020A6498D
:1027900008809948007801287ED18A480088B0F5E1
:1027A0007A7F24D18848B0F9000017F054FC41EC3E
:1027B000180B9FED9E0B53EC102B17F077FC16D8DF
:1027C0008448008898B98648008880B9994800886C
:1027D000401C9849088008460088142806DB002021
:1027E0008B4908709449088094490880DFE0754857
:1027F0000088B0F57A7F25D17348008810BB7548F2
:10280000B0F9000017F027FC41EC180B9FED750B99
:1028100053EC102B17F084FD14D87148008888B948
:1028200084480088401C8349088008460088142892
:10283000DCDB01207649087000207F4908807F4951
:102840000880B4E05F480088B0F57A7F27D15E4801
:10285000008820BB5F48B0F9000017F0FCFB41EC9A
:10286000180B9FED5D0B53EC102B17F01FFC16D8C7
:102870005B48008898B96F480088401C6D49088003
:10288000084600881428B1DB022061490870002046
:1028900069490880694900E090E0088087E049487C
:1028A0000088B0F57A7F25D14748008810BB494899
:1028B0000088F8B94A48B0F9000017F0CCFB41ECA9
:1028C000180B9FED480B53EC102B17F029FD11D876
:1028D00058480088401C574908800846008814283A
:1028E00065DB03204A49087000205349088053499A
:1028F00008805CE033480088B0F57A7F25D1324803
:10290000008810BB33480088F8B93548B0F900009A
:1029100017F0A1FB41EC180B9FED2F0B53EC102B84
:1029200017F0C4FB11D843480088401C4149088077
:102930000846008814283ADB042035490870002036
:102940003D4908803D49088031E01E480088B0F5C7
:102950007A7F25D11C48B0F9000017F07CFB41ECD0
:10296000180B9FED1A0B53EC102B17F0D9FC17D254
:1029700018480088A0B91A48008888B92D480088EE
:10298000401C2C4908800846008814280FDB0520CD
:102990001F4908700020284908802849088006E05F
:1029A0002449088800EBD0714910224A118021483F
:1029B0000088C82802DB00201E49088004B0BDEC56
:1029C000028B10BDE6040020EC0400200000000093
:1029D00000C06240EA04002000000000008036C011
:1029E000E80400200000000000803640EA000020DB
:1029F000FA04002052010020E2000020E000002044
:102A0000005002409C140020B0140020C414002088
:102A1000E1000020E9000020E300002000000000A9
:102A20009C12002076040020080500200000000011
:102A300000C062C0EC000020020500200405002058
:102A400010B53B4890ED000A3A48D0ED000A30EE50
:102A5000600A394880ED020A08F0DCFF374890ED43
:102A6000000A3748D0ED000A30EE600A324880EDA7
:102A7000560A00F5A87008F0CDFF324800880028FB
:102A800046D131480088B0F5FA7F04DC2E48008832
:102A9000401C2D490880284890EDA90AB5EEC00ACF
:102AA000F1EE10FA08D028480088B0F5FA7F03DD6F
:102AB00026480078012805D1254890ED000A1E48D7
:102AC00080EDA90A224890ED000A1B4880EDAA0A71
:102AD00000F5287009F0CEFD174890EDB40A80ED9E
:102AE000D30A1C48407B012821D11B4800780128CB
:102AF0001DD11A4890ED000AF0EE080A20EE200AD7
:102B00000D4880EDD30A9FED160A80EDA90A0EE06C
:102B10009FED130A084880EDA90A0A48B0F90000A1
:102B200000EE100AB8EEC00A034880EDD30A10BDCB
:102B3000040D002028010020D81B0020080D0020D3
:102B40002C010020EC040020320E00209B0B002002
:102B50000C0D00209C430020F30D0020500C0020A1
:102B60000000000010B5FFF76BFF04F04FF810BD38
:102B700010B50D480FF084F90B48C01E0FF080F916
:102B80000A480B490860FF20091D08600E2109480A
:102B900003F03EFB0421084803F03AFB0022042125
:102BA000054803F080FB10BD050800F04B434F4C77
:102BB00020650040005002400060004010B504460F
:102BC0002088012803DB2088401E208004E0227C2E
:102BD000D1B2E06803F067FB208810B9A07C01281F
:102BE0002AD12089401C2081208900EB8000618847
:102BF000884201DB00202081608800EE100AB8EED8
:102C0000400AD4ED010A60EE200A208900EB800022
:102C100000EE100AB8EEC00AF4EEC00AF1EE10FAA7
:102C200005DB227CD1B2E06803F03DFB04E0217CAF
:102C30000022E06803F037FB10BDF0B505AC70CCA6
:102C40000527B1FBF7F70780428080ED010A038179
:102C5000C46005828674F0BD10B504464CB958486E
:102C6000FFF7ACFF5748FFF7A9FF5748FFF7A6FF4C
:102C7000A4E0012C5CD15548007848B95048FFF7D2
:102C80009DFF504803F014FB4F4803F011FB95E003
:102C90004E480078012809D14A48FFF78FFF48487D
:102CA00003F006FB484803F003FB87E04748007841
:102CB000022809D14248FFF781FF4248FFF77EFF13
:102CC000414803F0F5FA79E040480078032809D13B
:102CD0003D48FFF773FF3A4803F0EAFA394803F03A
:102CE000E7FA6BE039480078042809D13448FFF747
:102CF00065FF3548FFF762FF324803F0D9FA5DE01F
:102D000032480078052809D12D4803F0D1FA2D4822
:102D1000FFF754FF2C48FFF751FF4FE02848FFF71B
:102D20004DFF2848FFF74AFF2748FFF747FF45E0D8
:102D3000022C32D12648007848B92148FFF73EFFDF
:102D4000204803F0B5FA204803F0B2FA36E02048F4
:102D50000078012809D11A4803F0AAFA1948FFF7A8
:102D60002DFF194803F0A4FA28E01948007802283A
:102D700009D1134803F09CFA124803F099FA12485B
:102D8000FFF71CFF1AE00E48FFF718FF0D48FFF78A
:102D900015FF0D48FFF712FF10E0032C0ED10222A1
:102DA00011460C4803F07FFA04221146094803F04B
:102DB0007AFA08221146074803F075FA10BD0000A0
:102DC0009C140020B0140020C4140020E100002056
:102DD000F80000200050024010B52248DFED220A22
:102DE0009FED220A0EF0FCFD2148DFED220A9FED47
:102DF0001F0A0EF0F5FD2048DFED200A9FED1B0AAB
:102E00000EF0EEFD1E48F3EE0E0A9FED180A0EF0CE
:102E1000E7FD1C48F3EE040A9FED140A0EF0E0FDF6
:102E20001948F2EE0E0A9FED110A0EF0D9FD17486F
:102E3000F2EE040A9FED0D0A0EF0D2FD1448F1EEF9
:102E4000040A9FED0A0A0EF0CBFD1248F0EE000ACC
:102E50009FED060A0EF0C4FD0F4A01210A2015F06D
:102E600021FC10BD141500200000A04200004843C2
:102E70002C150020000070424415002000004C4238
:102E80005C150020741500208C150020A41500206E
:102E9000BC150020D4150020EC14002070B50346AA
:102EA0000C46154600204DE0461C31B246E000EBD2
:102EB000400604EBC60606EB8106D6ED000A00EBE1
:102EC000400604EBC60606EB800696ED001A80EE7F
:102ED000810AB5EEC00AF1EE10FA2DD003EB81069F
:102EE000D6ED000A03EB800696ED001A40EE410A8B
:102EF00003EB8106C6ED000A0A461BE002EB420620
:102F000004EBC60606EB8106D6ED000A02EB42068C
:102F100004EBC60606EB800696ED001A40EE410A69
:102F200002EB420604EBC60606EB8106C6ED000A7C
:102F3000561C32B2062AE1DB4E1C31B20629B6DB42
:102F4000461C30B20628AFDB052045E000EB40060A
:102F500004EBC60606EB8006D6ED000A03EB8006FE
:102F600096ED001AC1EE201A03EB8006C6ED001A9A
:102F7000F7EE000A00EB400604EBC60606EB8006FF
:102F8000C6ED000A002123E000EB400604EBC60674
:102F900006EB8106D6ED000AB0EE600A03EB81066F
:102FA000D6ED000A03EB800696ED001A40EE410ACA
:102FB00003EB8106C6ED000ADFED100A00EB4006C8
:102FC00004EBC60606EB8106C6ED000A4E1C31B2C4
:102FD0008142D9DB461E30B20028B7DA002009E072
:102FE00003EB8006D6ED000A05EB8006C6ED000A6D
:102FF000461C30B20628F3DB70BD00000000000064
:1030000010B502460B46002017E09FED0D0A02EBBB
:10301000800484ED000A00210BE09FED090A00EB1B
:10302000400403EBC40404EB810484ED000A4C1C4F
:1030300021B20629F1DB441C20B20628E5DB10BDD5
:1030400000000000F0B586B004460D46F7EE001A09
:10305000B0EE611A002035E0C61C02EB8606D6ED04
:10306000000A03EB8006D6ED001A02EB800696ED0F
:10307000002A31EEC20A60EEA01A21EE802AF0EE9C
:10308000411A42EE401AB0EE611AF0EE001A60EEFC
:10309000A11A61EEA01A61EE801A6E4606EB800658
:1030A000C6ED001AF8EE001A60EEA11A61EE801A61
:1030B00061EE801AC61C6F4607EB8606C6ED001A45
:1030C000461C30B20328C7DB002032E004EB800648
:1030D000D6ED001A6E4606EB800696ED002A42EE0B
:1030E000011A04EB8006C6ED001A00211DE000EB7A
:1030F000400605EBC60606EB8106D6ED001A6E46C5
:1031000006EB800696ED002A6E4606EB8106D6EDAC
:10311000002A42EE221A00EB400605EBC60606EB3B
:103120008106C6ED001A4E1C31B20629DFDB461CB3
:1031300030B20628CADB06B0F0BD00002DE9F0432E
:103140002DED028BB9B007460E4614464FF000082D
:103150009FED9F0AB0EE408A9FED9E0AF0EE408AF6
:103160000020369037903890182130A8FDF7F3F9F9
:1031700018212AA8FDF7EFF9182124A8FDF7EBF98B
:1031800090216846FDF7E7F94FF001099FED920A9B
:103190008DED320A8DED310A8DED300A9FED8F0AEB
:1031A0008DED350A8DED340A8DED330A7FE008F19F
:1031B00001000FFA80F8694624A8FFF721FF0025D7
:1031C0001FE005EB450007EB800090ED000A8DED58
:1031D000360A05EB450007EB800090ED010A8DED06
:1031E000370A05EB450007EB800090ED020A8DEDF4
:1031F000380A36AB30AA694624A8FFF723FF681CBB
:1032000005B2062DDDDB2AAA694624A8FFF746FE93
:103210009DED2D0A20EE000ADDED330A20EEA01A06
:10322000C0EE010A9DED2A0A20EE000A30EE000AE7
:103230009DED2B1ADDED2B1A01EE210A9DED2C1AC6
:10324000DDED2C1A01EE210A30EE800ADDED2E0AAA
:1032500060EEA00A9DED341A21EE011AC0EE811A2B
:1032600070EE210A9DED2F0A20EE000A9DED351A21
:1032700021EE011AC0EE011A30EEA10AF0EE408AEA
:10328000002512E030A800EB850090ED000A2AA886
:1032900000EB8500D0ED000A30EE600A30A800EBAC
:1032A000850080ED000A681C05B2062DEADBB8F146
:1032B000140F05DAF4EEC88AF1EE10FA3FF777AF93
:1032C0009DED330ADFED460A20EE200A84ED000A68
:1032D0009DED340ADFED420A20EE200A84ED010A5A
:1032E0009DED350ADFED3E0A20EE200A84ED020A4C
:1032F0009DED300AD4ED000A20EE200A86ED000A8A
:103300009DED310AD4ED010A20EE200A86ED010A76
:103310009DED320AD4ED020A20EE200A86ED020A63
:1033200094ED000AF7EE000A30EE600AB0EEC00A33
:10333000F6EE000AB4EEE00AF1EE10FA1DDC94EDB0
:10334000010AF7EE000A30EE600AB0EEC00AF6EEAF
:10335000000AB4EEE00AF1EE10FA0EDC94ED020A77
:10336000F7EE000A30EE600AB0EEC00AF6EE000A90
:10337000B4EEE00AF1EE10FA01DD4FF0000996ED2F
:10338000000AB0EEC00AF1EE040AB4EEE00AF1EE73
:1033900010FA15DC96ED010AB0EEC00AF1EE040A4F
:1033A000B4EEE00AF1EE10FA0ADC96ED020AB0EE95
:1033B000C00AF1EE040AB4EEE00AF1EE10FA01DD03
:1033C0004FF00009484639B0BDEC028BBDE8F083F0
:1033D0005F7089300000C842000000007FD6D03DF9
:1033E0000AE81C4110B509480078401C07490870DC
:1033F00008460078042804DB00F0E0FF00200349C1
:1034000008700FF0AEFA00F09FFB10BD340E0020E4
:10341000002009490978012901D140F0010007493C
:103420000978012901D140F00200054909780129F4
:1034300001D140F00400704778040020E200002031
:10344000F100002010B50146002001EBC1026E4BD7
:1034500013F8222001EBC1036B4C04EB83035B7870
:103460001A4001EBC10304EB83039B781A4001EB84
:10347000C10304EB8303DB781A4001EBC10304EBC7
:1034800083031B791A4001EBC10304EB83035B79CF
:103490001A4001EBC10304EB83039B791A4001EB53
:1034A000C10304EB8303DB791A4001EBC10304EB96
:1034B00083031B7A1A4001EBC10304EB83035B7A9D
:1034C0001A4001EBC10304EB83039B7A1A4001EB22
:1034D000C10304EB8303DB7A1A4001EBC10304EB65
:1034E00083031B7B1A4001EBC10304EB83035B7B6B
:1034F0001A4001EBC10304EB83039B7B1A4001EBF1
:10350000C10304EB8303DB7B1A4001EBC10304EB33
:1035100083031B7C1A4001EBC10304EB83035B7C38
:103520001A4001EBC10304EB83039B7C1A4001EBBF
:10353000C10304EB8303DB7C1A4001EBC10304EB02
:1035400083031B7D1A4001EBC10304EB83035B7D06
:103550001A4001EBC10304EB83039B7D1A4001EB8E
:10356000C10304EB8303DB7D1A4001EBC10304EBD1
:1035700083031B7E1A4001EBC10304EB83035B7ED4
:103580001A4001EBC10304EB83039B7E1A4001EB5D
:10359000C10304EB8303DB7E1A4001EBC10304EBA0
:1035A00083031B7F1A4001EBC10304EB83035B7FA2
:1035B0001A4001EBC10304EB83039B7F1A4001EB2C
:1035C000C10304EB8303DB7F1A4001EBC10304EB6F
:1035D000830393F820301A4001EBC10304EB83030B
:1035E00093F821301A4001EBC10304EB830393F8F5
:1035F00022301A4001EBC10304EB830393F823301C
:103600001A4002B1012010BD5C1300201CB5044615
:1036100032480088401C314908800846008801284B
:1036200005D101220A210E200EF08AFA54E02B481F
:103630000088062850D103210E200EF079FA8DF86B
:10364000000004210E200EF073FA8DF80100052110
:103650000E200EF06DFA8DF8020006210E200EF0FD
:1036600067FA8DF8030007210E200EF061FA8DF83D
:10367000040008210E200EF05BFA8DF805009DF87D
:1036800000009DF8011040EA012000B200EE100A8F
:10369000B8EEC00A84ED000A9DF802009DF8031000
:1036A00040EA012000B2404200EE100AB8EEC00A23
:1036B00084ED010A9DF804009DF8051040EA012000
:1036C00000B200EE100AB8EEC00A84ED020A002033
:1036D0000249088001201CBD0020FCE74E0E00209E
:1036E000F8B5642013F000F94FF4A176AA200DF08C
:1036F00043FFAB200DF040FF3A4908780DF03CFF46
:10370000384948780DF038FF364988780DF034FF95
:103710003449C8780DF030FF32490978314A52787F
:103720005140304A927851402E4AD27881EA0200C4
:103730000DF022FF00254FF6FF702B49088017E09F
:1037400009E029480088401E27490880084600886B
:1037500008B90020F8BD25480FF05FFA0028F0D026
:1037600022480FF049FAC2B228466D1C0DF800201D
:10377000032DE5DB00242DE0BB200DF0FDFEDC2059
:103780000DF0FAFE1A49085D0DF0F6FE184A611CAC
:10379000505C0DF0F1FE1649095D81F0DC01144B1F
:1037A000621C9A5C81EA02000DF0E6FE00250DE045
:1037B00000BF0E480FF031FA0028FAD00B480FF086
:1037C0001BFAC2B228466D1C0DF80020032DEFDB5A
:1037D000A01C84B2B442CFDBDD200DF0CDFE012071
:1037E000B8E7000044C80100B604002000200140F2
:1037F00048C8010010B516480EF042FB15480EF0FF
:103800003FFB012002F0B8FC40F2014002F0B4FCA2
:1038100003214FF0402002F037FD05210E480FF044
:1038200002FA0E4A4FF4E13100200FF05FFA0A4825
:103830000FF03CFA102108480FF03FFA08490648FB
:103840000FF03FFA4021152003F03CFF10BD0000AF
:10385000000800F0001800F000C000400024F40050
:10386000992A010010B515480EF00AFB14480EF015
:1038700007FB4FF0011002F07FFC124802F07CFCC5
:103880000321114802F000FD052110480FF0CBF98B
:103890000F4A4FF4E13101200FF028FA0B480FF0E6
:1038A00005FA102109480FF008FA0A4907480FF0F5
:1038B00008FA8021162003F005FF10BD010800F072
:1038C000011800F0010401000050004000D0004049
:1038D0000024F400D52A010010B51B480EF0D0FAE0
:1038E0001A480EF0CDFA1A481A490860081D0068F7
:1038F00040F08000091D08600020091F086016487C
:1039000002F03AFC154802F037FCC021144802F0DE
:10391000BBFC0EF089F9044660234FF4E1322146E6
:1039200010480FF083F90F480FF0C0F950210D48EF
:103930000FF0C3F90C490B480FF0C3F920213120D7
:1039400003F0C0FE10BD0000030800F0021800F0F4
:103950004B434F4C2075004001180300011C03002D
:103960000070004000E00040092B010010B5154830
:103970000EF086FA14480EF083FA144802F0FCFBAD
:10398000134802F0F9FBC021124802F07DFC0EF052
:103990004BF9044660234FF4E13221460E480FF004
:1039A00045F90D480FF082F910210B480FF085F909
:1039B0000A4909480FF085F960214B2003F082FE87
:1039C00010BD0000020800F0031800F0011802000A
:1039D000011C02000060004000F00040452B010087
:1039E00010B518480EF04CFA17480EF049FA17486F
:1039F00002F0C2FB164802F0BFFB3021154802F06E
:103A000043FC0EF011F9044660234FF49642214620
:103A100011480FF00BF910480FF048F910210E482B
:103A20000FF04BF907F0ACFDFFF75AFE0B49087099
:103A30000B4909480FF045F9A0214E2003F042FE42
:103A400010BD0000030800F0061800F0011003008C
:103A5000011403000070004000200140AE0E002061
:103A6000812B010010B515480EF00AFA14480EF02B
:103A700007FA144802F080FB134802F07DFB032193
:103A8000124802F001FC0EF0CFF8044660234FF418
:103A9000E13221460E480FF0C9F80D480FF006F943
:103AA00010210B480FF009F90A4909480FF009F9EC
:103AB000D0214F2003F006FE10BD0000040800F0E6
:103AC000071800F001000400010404000040024057
:103AD00000300140BD2B0100F0EE400AC0ED020AAB
:103AE00091ED030A90ED021A20EE010A91ED041AFD
:103AF000D0ED011A01EE210A91ED051AD0ED001A60
:103B000001EE210A91ED011AD0ED041A01EE610ACD
:103B100091ED021AD0ED031A01EE610A80ED050A5B
:103B200090ED010A80ED000A90ED020A80ED010A95
:103B300090ED040A80ED030A90ED050A80ED040A79
:103B400090ED050A704700002DE9F0432DED048B40
:103B500085B00EF017FD14F015F9F948008801281A
:103B60007DD1F848007801287AD1F7480088B0F56F
:103B70007A7F12DCF5480088B0F57A7F0DDCF448D6
:103B80000088B0F57A7F08DCF2480088B0F57A7FCB
:103B900003DC6420F049088031E0F048007870BB15
:103BA0000020E74908800221ED4A0346B6EE000AEC
:103BB000CDE900210290C82240F6B831E948FFF76C
:103BC0003CF800200421E64A0346B6EE000ACDE99F
:103BD00000210290C82240F6B831E348FFF72DF8E3
:103BE00000200821DE4A0346B6EE000ACDE9002196
:103BF0000290C82240F6B831DC48FFF71EF8DC48D6
:103C00000088401CDA490880084600880A280BDB37
:103C1000D1480088012804DBCF480088401ECE49E7
:103C200008800020D2490880CB480088C0F1640099
:103C30006421484390FBF1F000F57A70CD4908808B
:103C4000C5480088C0F164006421484390FBF1F04E
:103C500000F57A70C8490880BF48008801E0B2E2E8
:103C600034E0C0F164006421484390FBF1F000F5BA
:103C70007A70C2490880B8480088C0F164006421A5
:103C8000484390FBF1F000F57A70BD490880B248D6
:103C90000088C0F164006421484390FBF1F000F516
:103CA0007A70B8490880AC480088C0F1640064218B
:103CB000484390FBF1F000F57A70B34908800EF0AC
:103CC0008BFA07F0E5FC07F0FDFB8EE2AF480078C9
:103CD00001287CD1AE48008840F27E41884277DBE3
:103CE000AC48008800EE100AB8EE400AF7EE000A71
:103CF00020EE200AA848D0ED8A0ABFEE001A01EE95
:103D0000200AD0ED360AB7EE001A01EE200AD0EDF7
:103D1000DE0ABFEE001A01EE200ABDEEC00A10EE68
:103D2000100A944908809B48008800EE100AB8EEFB
:103D3000400AF7EE000A20EE200A9748D0ED8A0AE2
:103D4000B7EE001A01EE200AD0ED360ABFEE001AD7
:103D500001EE200AD0EDDE0ABFEE001A01EE200AC5
:103D6000BDEEC00A10EE100A834908808948008819
:103D700000EE100AB8EE400AF7EE000A20EE200A24
:103D80008548D0ED8A0AB7EE001A01EE200AD0ED80
:103D9000360AB7EE001A01EE200AD0EDDE0AB7EEC1
:103DA000001A01EE200ABDEEC00A10EE100A734997
:103DB00008807848008800EE100AB8EE400AF7EE56
:103DC000000A20EE200A7448D0ED8A0A01E0E7E0FC
:103DD0005CE0BFEE001A01EE200AD0ED360ABFEE1D
:103DE000001A01EE200AD0EDDE0AB7EE001A01EE4D
:103DF000200ABDEEC00A10EE100A6149088065482D
:103E0000008800EE100AB8EE400ADFED640A20EEEA
:103E1000200A6148D0ED8A0A9FED601A01EE200A5F
:103E2000D0ED360A9FED5D1A01EE200AD0EDDE0AD4
:103E30009FED5A1A01EE200ABDEEC00A10EE100ADC
:103E4000504908805348008800EE100AB8EE400A36
:103E5000DFED520A20EE200A4F48D0ED8A0A9FED8E
:103E60004F1A01EE200AD0ED360A9FED4C1A01EEF2
:103E7000200AD0EDDE0A9FED491A01EE200ABDEEC0
:103E8000C00A10EE100A4049088019E04148008835
:103E9000384908803F480088374908803D480088F5
:103EA000364908803B4800883549088039480088F1
:103EB0003449088037480088334908800EF08CF96F
:103EC0002C4802884FF4FA6140F24C400FF0DAF8C7
:103ED00028490880284802884FF4FA6140F24C4093
:103EE0000FF0D0F824490880244802884FF4FA6182
:103EF00040F24C400FF0C6F8204908802048028864
:103F00004FF4FA6140F24C400FF0BCF81C490880B5
:103F10001C4802884FF4FA6140F24C400FF0B2F8AE
:103F200018490880184802884FF4FA6140F24C4062
:103F30000FF0A8F8144908800EF04EFC55E100007F
:103F4000FA0400209B0B0020D60D0020D80D002085
:103F5000DA0D0020DC0D0020300E00209A0B00202E
:103F6000005002409C140020B0140020C414002013
:103F70002E0E0020CA0D0020CC0D0020CE0D0020FA
:103F8000D00D0020D20D0020D40D0020E20D002025
:103F9000200E00202C0E0020D81B00200000000066
:103FA000F54800780228C9D1F448008800EE100ACC
:103FB000B8EE400AF7EE000A20EE200AF048D0EDF5
:103FC0008A0ABFEE001A01EE200AD0ED360AB7EEDB
:103FD000001A01EE200AD0EDDE0ABFEE001A01EE53
:103FE000200ABDEEC00A10EE100AE6490880E34838
:103FF000008800EE100AB8EE400AF7EE000A20EE44
:10400000200ADF48D0ED8A0AB7EE001A01EE200A36
:10401000D0ED360ABFEE001A01EE200AD0EDDE0A1E
:10402000BFEE001A01EE200ABDEEC00A10EE100A23
:10403000D5490880D148008800EE100AB8EE400A41
:10404000F7EE000A20EE200ACD48D0ED8A0AB7EE3E
:10405000001A01EE200AD0ED360AB7EE001A01EE82
:10406000200AD0EDDE0AB7EE001A01EE200ABDEEFE
:10407000C00A10EE100AC5490880C048008800EE4A
:10408000100AB8EE400AF7EE000A20EE200ABC48FB
:10409000D0ED8A0ABFEE001A01EE200AD0ED360AF2
:1040A000BFEE001A01EE200AD0EDDE0AB7EE001ACC
:1040B00001EE200ABDEEC00A10EE100AB4490880D5
:1040C000AE48008800EE100AB8EE400A5FED4D0AD7
:1040D00020EE200AAA48D0ED8A0A1FED501A01EE00
:1040E000200AD0ED360A1FED531A01EE200AD0ED5A
:1040F000DE0A1FED561A01EE200ABDEEC00A10EED0
:10410000100AA44908809D48008800EE100AB8EE05
:10411000400A5FED5E0A20EE200A9948D0ED8A0A37
:104120001FED621A01EE200AD0ED360A1FED651A66
:1041300001EE200AD0EDDE0A1FED681A01EE200A1A
:10414000BDEEC00A10EE100A934908808D4802881F
:104150004FF4FA6140F24C400EF094FF8949088018
:10416000894802884FF4FA6140F24C400EF08AFF11
:1041700085490880854802884FF4FA6140F24C4036
:104180000EF080FF81490880814802884FF4FA616F
:1041900040F24C400EF076FF7D4908807D48028851
:1041A0004FF4FA6140F24C400EF06CFF7949088000
:1041B000794802884FF4FA6140F24C400EF062FFF9
:1041C0007549088011E04FF47A706E4908806E4995
:1041D00008806E4908806E4908806E4908806E49E3
:1041E00008800DF0F9FF0EF0F7FA664800886B4979
:1041F0000880654800886A490880644800886949E1
:1042000008806348008868490880624800886749D8
:10421000088061480088664908805A4802884FF43F
:10422000FA6100200EF02EFF564908805648028899
:104230004FF4FA6100200EF025FF534908805348DF
:1042400002884FF4FA6100200EF01CFF4F490880ED
:104250004F4802884FF4FA6100200EF013FF4C49DA
:1042600008804C4802884FF4FA6100200EF00AFFE3
:1042700048490880484802884FF4FA6100200EF04F
:1042800001FF454908800846008815F0FBFE41EC17
:10429000190B9FED480B53EC102B15F043FF41EC2D
:1042A000180B15F0ABFE84B23A48008815F0EAFE10
:1042B00041EC190B9FED3F0B53EC102B15F032FF27
:1042C00041EC180B15F09AFE85B23148008815F0C4
:1042D000D9FE41EC190B9FED370B53EC102B15F069
:1042E00021FF41EC180B15F089FE86B227480088A3
:1042F00015F0C8FE41EC190B9FED2E0B53EC102B63
:1043000015F010FF41EC180B15F078FE87B21E482F
:10431000008815F0B7FE41EC190B9FED260B53EC0E
:10432000102B15F0FFFE41EC180B15F067FE1FFA7D
:1043300080F81448008815F0A5FE41EC190B9FED9C
:104340001D0B53EC102B15F0EDFE41EC180B15F086
:1043500055FE1FFA80F90020CDE9014033463A4668
:10436000414600950390484608F0BAFD05B0BDEC03
:10437000048BBDE8F0830000E20D00202C0E00202D
:10438000D81B0020CA0D0020CC0D0020CE0D00202F
:10439000D00D0020D20D0020D40D0020D60D00201D
:1043A000D80D0020DA0D0020DC0D0020DE0D0020ED
:1043B000E00D0020000000000000F43F10B5D448DC
:1043C0000078D4490870D4480078D4490870D4489B
:1043D0000078D4490870D4480078D4490870D4488B
:1043E00090ED100AD0ED130A70EE600AD1480089F2
:1043F00000EE100AB8EE400AF4EEC00AF1EE10FA30
:1044000003D80220C249087014E0C94890ED110A8F
:10441000D0ED130A70EE200AC648008900EE100A9B
:10442000B8EE400AF4EEC00AF1EE10FA02DB012009
:10443000B7490870BE4890ED180AD0ED1B0A70EE1F
:10444000600ABC48808900EE100AB8EE400AF4EE1B
:10445000C00AF1EE10FA03D80220B149087014E046
:10446000B34890ED1A0AD0ED1B0A70EE200AB1484D
:10447000808900EE100AB8EE400AF4EEC00AF1EEB0
:1044800010FA02DB0120A6490870A94890ED1A0A2B
:10449000D0ED1B0A70EE600AA648808900EE100A73
:1044A000B8EE400AF4EEC00AF1EE10FA15D8A048B2
:1044B00090ED1A0AD0ED1B0A70EE200A9D48808903
:1044C00000EE100AB8EE400AF4EEC00AF1EE10FA5F
:1044D00003DB01209849087004E000209649087029
:1044E00005F026FB924890ED1C0AD0ED1F0A70EEF5
:1044F000600A9048C08900EE100AB8EE400AF4EE57
:10450000C00AF1EE10FA03D802208749087018E0BB
:10451000874890ED1D0AD0ED1F0A70EE200A8548ED
:10452000C08900EE100AB8EE400AF4EEC00AF1EEBF
:1045300010FA06DB01207C49087007F0A9F806F0A4
:10454000C1FF7B4890ED150AD0ED170A70EE200AE6
:104550007848408900EE100AB8EE400AF4EEC00A2E
:10456000F1EE10FA03DB07F093F806F0ABFF7348A7
:104570000088012804DB71480088401E6F490880CC
:104580006E48008810B900206D49087067480078AF
:1045900065490978884223D06348007801281FD1F3
:1045A0004FF416706549088065480078401C6449DE
:1045B000087008460078032812DB01206149087062
:1045C00000205F490870604890ED000ADFED5F0A47
:1045D00030EE200A5E4880EDFD0A00205D4908802B
:1045E0005848007801282AD1B7EE000A5A4880EDD1
:1045F000270A9FED5A0A80ED280A9FED580AA0F578
:10460000527080ED270A9FED550A80ED280AB0EE22
:10461000000AA83880ED270AB7EE000A80ED280AC4
:104620004B4890EDFD0A4848D0ED000AB4EEE00A90
:10463000F1EE10FA1FD80020424908701BE0B7EED7
:10464000000A454880ED270AB7EE000A80ED280AE7
:10465000B7EE000AA0F5527080ED270AB7EE000A07
:1046600080ED280AB7EE000AA83880ED270AB7EED9
:10467000000A80ED280A3748008801280DD10DF086
:10468000E5FE3749087008460078022803D100206B
:104690003049088001E00DF09FFD21480078214954
:1046A000097888420BD01E480078012801D113F008
:1046B000A5FA254890ED000A254880EDFD0A14482A
:1046C00000781449097888420CD0114800780228F3
:1046D00002D10120234908700D480078012801D13A
:1046E000204908701F480078012810D10848007838
:1046F000022809D11C4800881C490880124890ED06
:10470000000A134880EDFD0A00201649087010BD0C
:10471000E20D0020E30D0020E40D0020E50D002057
:10472000E60D0020E70D0020E80D0020E90D002037
:10473000F81300203C480020F30D0020EC0D002071
:10474000EB0D0020EA0D0020602A002000009642B8
:10475000D81B002006050020B82300209A99993F15
:10476000540B0020EE0D0020E6040020F00D002088
:1047700010B52DED028B0021084603F069FC59A20B
:1047800000211E2003F078FB5948B0F90000401CBE
:1047900000EE100AB8EEC00A0021642015F028F8D7
:1047A0000121002003F054FC52A20121002003F05B
:1047B00063FB524800680A21B0FBF1F201FB1200D2
:1047C00000EE100AB8EE400AB0EE408A012128201F
:1047D00015F00EF84A4800680A21B0FBF1F201FB1F
:1047E000120000EE100AB8EE400AB0EE408A012135
:1047F000502014F0FDFF0221002003F029FC41A20B
:104800000221002003F038FB3C4840680A21B0FB3D
:10481000F1F201FB120000EE100AB8EE400AB0EE11
:10482000408A0221282014F0E3FF354840680A211D
:10483000B0FBF1F201FB120000EE100AB8EE400AE4
:10484000B0EE408A0221502014F0D2FF0321002054
:1048500003F0FEFB2DA20321002003F00DFB2748EF
:10486000D0ED020AF8EE600AB0EE600A03212820BB
:1048700014F0BEFF224880680A21B0FBF1F201FB70
:10488000120000EE100AB8EE400AB0EE408A032192
:10489000502014F0ADFF0421002003F0D9FB1DA22D
:1048A0000421002003F0E8FA0521002003F0D0FBEA
:1048B0001EA20521002003F0DFFA0621002003F0EC
:1048C000C7FB20A20621002003F0D6FA0721002012
:1048D00003F0BEFB20A20721002003F0CDFABDECBF
:1048E000028B10BD41637469766174696F6E00005C
:1048F000760400204944313A0000000010480020AE
:104900001C4800204944323A000000004944333A30
:1049100000000000506C656173652074616B652058
:1049200070686F746F206F66000000007468652007
:104930004F4C454420616E6420636F6E74616374F4
:104940000000000020205151203A333133383337F2
:104950003231363500000000202054454C3A3135C4
:1049600036373136373832303500000010B504465E
:10497000204611F0A4FF10BD2DE9F04105460C467C
:104980002146284612F028F80646601CC1B2284687
:1049900012F022F8074647EA062000B2BDE8F0818F
:1049A00070B50026002414E02146002003F0DAFA56
:1049B00000250AE03146761C0A4A505C03F01AFBD7
:1049C0000220FFF7D3FF681CC5B2802DF2DB601C0C
:1049D000C4B2082CE8DB4FF4FA70FFF7C7FF03F00E
:1049E0000BFA70BD44C4010010B50220FBF7D0FCE7
:1049F0000EF0EAFE0B48C46904F00C0080B10A48CE
:104A00000DF074FA0220FBF7C3FC0EF0DDFE054842
:104A1000C46904F00C0008B1022010BD0120FCE7BD
:104A20000020FAE700F00A40005800F02DE9F041BC
:104A300007460E46144600BF2A48856905F0010066
:104A40000028F9D1B00927494860C6F3830088607F
:104A5000A40835E0244800682449084024498842D5
:104A600006D12148006880B210B930460EF08CFEA5
:104A70001C493868486100BF1A48856905F0010083
:104A80000028F9D105F4887078B1174800681749F3
:104A900008401749884205D11348006880B208B918
:104AA0000EF056FE2846BDE8F0813F1D641E3CB165
:104AB0000C48806820B90B484068401C0949486090
:104AC000002CC7D1084800680849084008498842B6
:104AD00005D10548006880B208B90EF039FE0148DA
:104AE0008069E0E700F00A4000E00F400000FF703E
:104AF0000000051010B58B090B4C6360C1F38303F4
:104B0000A36092080DE0084B5B690360001D521E14
:104B10003AB1054B9B6823B9034B5B685B1C024CA5
:104B20006360002AEFD110BD00F00A4010B50348C1
:104B30000DF0A6F9FFF758FF10BD0000005800F077
:104B40002DE9F04F2DED048B85B04D49888815F087
:104B500099FA41EC190B9FED4B0B53EC102B15F010
:104B6000E1FA41EC180B15F049FA84B244498888FF
:104B700015F088FA41EC190B9FED420B53EC102B0A
:104B800015F0D0FA41EC180B15F038FA85B23C4913
:104B9000888815F077FA41EC190B9FED3A0B53EC2E
:104BA000102B15F0BFFA41EC180B15F027FA86B25E
:104BB0003349888815F066FA41EC190B9FED310BEB
:104BC00053EC102B15F0AEFA41EC180B15F016FA59
:104BD00087B22B49888815F055FA41EC190B9FEDE7
:104BE000290B53EC102B15F09DFA41EC180B15F026
:104BF00005FA1FFA80F82249888815F043FA41EC3B
:104C0000190B9FED200B53EC102B15F08BFA41EC98
:104C1000180B15F0F3F91FFA80F91949888815F077
:104C200031FA41EC190B9FED170B53EC102B15F0DB
:104C300079FA41EC180B15F0E1F91FFA80FA1049E6
:104C4000888815F01FFA41EC190B9FED0E0B53EC01
:104C5000102B15F067FA41EC180B15F0CFF91FFA7D
:104C600080FB43464A4651465846CDE90076CDE999
:104C7000025408F035F905B0BDEC048BBDE8F08FA7
:104C80003C480020000000000000F43F00B52DED7E
:104C9000028B83B05A480088B0F57A7F2ED15948EC
:104CA000B0F9000015F0D7F941EC180B9FED560B49
:104CB00053EC102B15F034FB20D85548B0F9000008
:104CC00015F0C9F941EC180B9FED520B53EC102B6A
:104CD00015F026FB12D85148B0F9000015F0BBF9C9
:104CE00041EC180B9FED4E0B53EC102B15F0DEF939
:104CF00004D84D480088401C4B4908804048008833
:104D0000B0F57A7F77D13F48B0F9000015F0A3F9EC
:104D100041EC180B9FED3C0B53EC102B15F000FBF6
:104D200069D83B48B0F9000015F095F941EC180B33
:104D30009FED380B53EC102B15F0F2FA5BD8374887
:104D4000B0F9000015F087F941EC180B9FED340B1A
:104D500053EC102B15F0AAF94DD833480088B0F564
:104D60007A7F48DD31480088F0BBB7EE000A304852
:104D700080ED000A00202C4908802E4908802E4929
:104D80002B4890ED000A54200EF088FC00200221F0
:104D90002A4A03469FED2A0ACDE9002102904FF4EA
:104DA000FA7241F288312748FDF747FF00200421BD
:104DB000224A03469FED220ACDE9002102904FF4DA
:104DC000FA7241F288312048FDF737FF00200821B0
:104DD0001A4A03469FED1A0ACDE9002102904FF4CA
:104DE000FA7241F2883100E005E01848FDF725FF2E
:104DF0000E201749088003B0BDEC028B00BD0000F7
:104E0000E6040020EC0400200000000000C0624026
:104E1000EA0400200000000000803640E804002082
:104E200000000000008036C022010020FA040020AB
:104E30002401002008050020E03F0020005002402F
:104E4000CDCC4C3E9C140020B0140020C414002093
:104E50007604002004F03AFF07F0D6FF02F02CFBA6
:104E6000642011F041FD25499FED250A54200EF0E4
:104E700015FC42E0FFF764FE0021084603F0E8F865
:104E80000121002003F0E4F81EA20021084603F0EF
:104E900025F80221002003F0DBF80321002003F0B5
:104EA000D7F81CA20221002003F018F804210020EA
:104EB00003F0CEF80521002003F0CAF819A204215E
:104EC000002003F00BF81AA20421502002F0D4FFB6
:104ED0001948808800EE900AF8EE600AB0EE600A89
:104EE0000521502014F084FC0621002003F0B0F8C6
:104EF00012A20621002002F0BFFFBBE7E03F002026
:104F000000000000506C65617365204D6F76652070
:104F100054687200446F776E205768656E20455361
:104F20004300000042656570204265657000000026
:104F30005468723A000000003C4800205265706FCF
:104F4000776572205768656E205365742055700030
:104F500010B52DED0C8B84B00020019002900390D1
:104F6000EF49A1F10C0003F008FCEE4890ED000AB7
:104F7000DFEDED0A60EE200A9FEDEC1A80EE810A6B
:104F8000EB48D0ED000AE6480C3890ED031A10EE1D
:104F9000810AE84880ED000AE24890ED010ADFED61
:104FA000E20A60EE200A9FEDE11A80EE810AE048F5
:104FB000D0ED010ADA480C3890ED041A10EE810A9F
:104FC000DC4880ED010AD74890ED020ADFEDD60AF1
:104FD00060EE200A9FEDD51A80EE810AD448D0ED0C
:104FE000020ACF480C3890ED051A10EE810AD1481C
:104FF00080ED020A90ED000AF0EE408A90ED010A81
:10500000B0EE409A90ED020AB0EE408A69EE090ACD
:1050100048EE080AB0EE600A11F0F0FE20EE280A11
:1050200010EE104A204615F073FB41EC1C0BB0EE5D
:105030004C0AF0EE6C0A0EF043FEB0EE40BAF0EE11
:1050400060BA9FEDBD0B53EC102B51EC1B0B15F010
:1050500069F841EC1A0B14F05BFDB949086068EE81
:10506000A80A48EE080AB0EE600A11F0C7FE20EE6A
:10507000090A10EE104A204615F04AFB41EC1C0BC1
:10508000B0EE4C0AF0EE6C0A0EF01AFEB0EE40BA2A
:10509000F0EE60BA9FEDAB0B53EC102B51EC1B0BF9
:1050A00015F040F841EC1A0B14F032FDA7490860E6
:1050B000084690ED000ADFEDA60A20EE200A10EE69
:1050C000101A084615F024FB41EC1B0BB0EE4B0AFE
:1050D000F0EE6B0A10F0C0FAB0EE40AAF0EE60AA53
:1050E00051EC1A0B14F014FD00EE100A994880EDF3
:1050F000000A964890ED000ADFED950A20EE200A9E
:1051000010EE101A084615F003FB41EC1B0BB0EE35
:105110004B0AF0EE6B0A0FF037F8B0EE40AAF0EE53
:1051200060AA51EC1A0B14F0F3FC00EE100A8A4846
:1051300080ED000A824890ED000ADFED850A20EE3E
:10514000200A10EE101A084615F0E2FA41EC1B0B8B
:10515000B0EE4B0AF0EE6B0A10F07EFAB0EE40AA09
:10516000F0EE60AA51EC1A0B14F0D2FC00EE100A1B
:105170007A4880ED000A724890ED000ADFED740A6B
:1051800020EE200A10EE101A084615F0C1FA41EC84
:105190001B0BB0EE4B0AF0EE6B0A0EF0F5FFB0EE13
:1051A00040AAF0EE60AA51EC1A0B14F0B1FC00EE2C
:1051B000100A6B4880ED000A08E0052011F094FB0E
:1051C00057480C30FEF722FA6649087065480078A7
:1051D0000028F2D052480C3890ED060A6248D0ED13
:1051E000000A30EE600A8DED010A4D480C3890ED52
:1051F000070A5D48D0ED010A30EE600A8DED020A23
:1052000047480C3890ED080A5748D0ED020A30EEB6
:10521000600A8DED030A9DED010A5148D0ED000AA8
:1052200020EE200ADDED030A4C4890ED001A00EE56
:10523000810A4E4880ED000A9DED010A4548D0EDF7
:10524000000A20EE200A4548D0ED000A20EE200A90
:10525000DDED020A404890ED001A00EE810ADDED16
:10526000030A3C4890ED001A60EE810A3C4890ED3C
:10527000001A00EEC10A3D4880ED010A90ED010AD6
:1052800010EE101A084615F043FA41EC1C0B374893
:1052900090ED000A10EE101A084615F039FA41ECAC
:1052A0001D0BB0EE4C1AF0EE6C1AB0EE4D0AF0EE9B
:1052B0006D0A0EF071FEB0EE40BAF0EE60BA9FEDEE
:1052C0002C0B53EC102B51EC1B0B14F02BFF41EC6F
:1052D0001A0B14F01DFC28490860194890ED000ACB
:1052E000DFED1B0A20EE200A244880ED000A174853
:1052F00090ED000ADFED160A20EE200A204880ED2E
:10530000000A084690ED000ADFED110A20EE200A9F
:105310001C4880ED000A04B0BDEC0C8B10BD0000F1
:105320007038002034440020000000450AE81C4189
:10533000300D00207C4400206666666666A64CC080
:10534000200D00206666666666A64C401C0D002097
:1053500035FA8E3C440D0020500D0020480D0020F1
:10536000540D00205C0D0020E81A00205404002099
:1053700000000060E3A54C40240D0020640D0020D7
:10538000600D0020680D002000B599B0002012903B
:1053900013901490FE4890ED000ADFEDFE0A60EED7
:1053A000200A9FEDFD1A80EE810AFC48D0ED000A2C
:1053B000FB4890ED031A10EE810AFA4880ED000ACE
:1053C000F34890ED010ADFEDF30A60EE200A9FED4D
:1053D000F21A80EE810AF148D0ED010AF04890ED12
:1053E000041A10EE810AEF4880ED010AE84890EDBA
:1053F000020ADFEDE80A60EE200A9FEDE71A80EE70
:10540000810AE648D0ED020AE54890ED051A10EE53
:10541000810AE44880ED020A90ED000A8DED170A3A
:1054200090ED010A8DED160A90ED020A8DED150A38
:105430009DED160A20EE000ADDED150A00EEA00A29
:105440008DED0A0A9DED0A0A11F0D8FCDDED170A70
:1054500020EE200A8DED0B0A0B9815F059F9CDE9D5
:105460000C019DED0C0B0EF02BFC8DED0E0B9FED4A
:10547000CE0B53EC102B9DED0E0B51EC100B14F0DA
:1054800051FECDE910019DED100B51EC100B14F005
:105490003FFBC74908609DED170A20EE000ADDEDCD
:1054A000150A00EEA00A8DED0A0A9DED0A0A11F018
:1054B000A5FCDDED160A20EE200A8DED0B0A0B98F7
:1054C00015F026F9CDE90C019DED0C0B0EF0F8FB63
:1054D0008DED0E0B9FEDB70B53EC102B9DED0E0BCE
:1054E00051EC100B14F01EFECDE910019DED100BD8
:1054F00051EC100B14F00CFBB0490860084690ED1D
:10550000000ADFEDAF0A20EE200A8DED0D0A0D989E
:1055100015F0FEF8CDE90E019DED0E0B10F09CF894
:105520008DED100B9DED100B51EC100B14F0F0FAFB
:1055300000EE100AA34880ED000AA04890ED000A92
:10554000DFED9F0A20EE200A8DED0D0A0D9815F073
:10555000DFF8CDE90E019DED0E0B0EF015FE8DED81
:10556000100B9DED100B51EC100B14F0D1FA00EE66
:10557000100A954880ED000A8D4890ED000ADFED95
:10558000900A20EE200A8DED0D0A0D9815F0C0F856
:10559000CDE90E019DED0E0B10F05EF88DED100BB8
:1055A0009DED100B51EC100B14F0B2FA00EE100A46
:1055B000864880ED000A7E48D0ED000A9FED800A03
:1055C00020EE800A8DED0D0A0D9815F0A1F8CDE9B9
:1055D0000E019DED0E0B0EF0D7FD8DED100B9DED28
:1055E000100B51EC100B14F093FA00EE100A7848EF
:1055F00080ED000A6A4890ED060A7648D0ED000A70
:1056000030EE600A8DED120A654890ED070A714888
:10561000D0ED010A30EE600A8DED130A604890ED7E
:10562000080A6C48D0ED020A30EE600A8DED140ACB
:10563000DDED120A664890ED000A20EE800ADDEDED
:10564000140A624890ED001A00EE810A624880ED6B
:10565000000A9DED120A5B48D0ED000A20EE200AF8
:105660005A48D0ED000A20EE200A9DED131A564844
:10567000D0ED000A01EE200ADDED140A514890ED4C
:10568000001A60EE810A524890ED001A00EEC10A3D
:10569000514880ED010A4068099015F039F8CDE9CC
:1056A0000C014D480068099015F032F8CDE90A0167
:1056B0009DED0C1B9DED0A0B0EF06EFC8DED0E0B9F
:1056C0009FED460B53EC102B9DED0E0B51EC100B88
:1056D00014F028FDCDE910019DED100B51EC100BDD
:1056E00014F016FA3F490860314890ED000ADFEDEA
:1056F000340A20EE200A3C4880ED000A2F4890ED45
:10570000000ADFED2F0A20EE200A384880ED000A5B
:10571000084690ED000ADFED2A0A20EE200A344800
:1057200080ED000A3148D0ED000AB0EE001A80EE9C
:10573000810A8DED050A059814F0EAFFCDE906010E
:105740009DED060B0FF088FF8DED0A0B2648D0ED7E
:10575000000AB0EE001A80EE810A8DED010A019870
:1057600014F0D6FFCDE902019DED020B0FF074FF9E
:105770008DED060B1E4890ED001AF0EE000A81EE4A
:10578000200A8DED010A019814F0C2FF32E00000FA
:1057900034440020000000450AE81C41300D002080
:1057A000643800207C4400206666666666A64CC0AD
:1057B000200D00206666666666A64C401C0D002023
:1057C00035FA8E3C440D0020500D0020480D00207D
:1057D000540D0020E81A002054040020000000604E
:1057E000E3A54C40240D0020640D0020600D002036
:1057F000680D0020CDE902019DED020B0FF02CFF9A
:105800008DED040B9DED060B53EC102B9DED040B61
:1058100051EC100B14F086FCCDE908019DED0A0B4C
:1058200053EC102B9DED080B51EC100B14F07AFC8F
:10583000CDE90E01FE48D0ED000AB0EE001A80EE70
:10584000810A8DED050A059814F062FFCDE9060185
:105850009DED060B0EF098FC8DED0A0BF548D0ED92
:10586000000AB0EE001A80EE810A8DED010A01985F
:1058700014F04EFFCDE902019DED020B0EF084FC09
:105880008DED060BEC4890ED001AF0EE000A81EE6B
:10589000200A8DED010A019814F03AFFCDE90201CA
:1058A0009DED020B0EF070FC8DED040B9DED060BD3
:1058B00053EC102B9DED040B51EC100B14F032FC4B
:1058C000CDE908019DED0A0B53EC102B9DED080B63
:1058D00051EC100B14F026FCCDE90C019DED0E0BE4
:1058E00053EC102B9DED0C0B51EC100B14F042F906
:1058F000CDE910019DED100B51EC100B14F008F9DF
:10590000CE490860CA48D0ED000AB0EE001A80EE19
:10591000810A8DED050A059814F0FAFECDE906011D
:105920009DED060B0EF030FC8DED0A0BC148D0ED5D
:10593000000AB0EE001A80EE810A8DED010A01988E
:1059400014F0E6FECDE902019DED020B0FF084FE9E
:105950008DED060BB848D0ED000AB0EE001A80EECF
:10596000810A8DED010A019814F0D2FECDE9020101
:105970009DED020B0FF070FE8DED040B9DED060BFF
:1059800053EC102B9DED040B51EC100B14F0CAFBE3
:10599000CDE908019DED0A0B53EC102B9DED080B92
:1059A00051EC100B14F0BEFBCDE90E01A048D0ED78
:1059B000000AB0EE001A80EE810A8DED050A059806
:1059C00014F0A6FECDE906019DED060B0FF044FE96
:1059D0008DED0A0B974890ED001AF0EE000A81EE6B
:1059E000200A8DED010A019814F092FECDE9020122
:1059F0009DED020B0EF0C8FB8DED060B8E48D0ED31
:105A0000000AB0EE001A80EE810A8DED010A0198BD
:105A100014F07EFECDE902019DED020B0EF0B4FB09
:105A20008DED040B9DED060B53EC102B9DED040B3F
:105A300051EC100B14F076FBCDE908019DED0A0B3B
:105A400053EC102B9DED080B51EC100B14F06AFB7E
:105A5000CDE90C019DED0E0B53EC102B9DED0C0BC5
:105A600051EC100B14F06AFDCDE910019DED100B07
:105A700051EC100B14F04CF8714908606C48D0EDF3
:105A8000000AB0EE001A80EE810A8DED050A059835
:105A900014F03EFECDE906019DED060B0FF0DCFD96
:105AA0008DED0A0B6348D0ED000AB0EE001A80EECF
:105AB000810A8DED010A019814F02AFECDE9020158
:105AC0009DED020B0EF060FB8DED060B5A48D0EDFC
:105AD000000AB0EE001A80EE810A8DED010A0198ED
